:0400000085EF00F098
:1000080000C015F0F2A41AD0F294B10ED76EE00E2B
:10001800D66E000E191802E1000E18180FE11A2A00
:100028001A50640A02E11A6A162A16503C0A02E1BA
:10003800166A172A17501708D8A0176A15C000F0B3
:020048001100A5
:10004A00086A080E0C6E003408360450085ED8B0F0
:0E005A0002D00826D89000360C2EF5D71200E2
:100068001ED0BF0E836E39D0860E836E36D0DB0E5F
:10007800836E33D0CF0E836E30D0E60E836E2DD0D4
:10008800ED0E836E2AD0FD0E836E27D0870E836E09
:1000980024D0FF0E836E21D0EF0E836E1ED01B502E
:1000A800000ADFE01B50010ADFE01B50020ADFE014
:1000B8001B50030ADFE01B50040ADFE01B50050A4F
:1000C800DFE01B50060ADFE01B50070ADFE01B5089
:1000D800080ADFE01B50090ADFE083CF00F01200B6
:1000E800880ED56EB10ED76EE00ED66EF28EF28AFD
:0200F8001200F4
:1000FA000900F5CFE6FF0006FBE10106F9E112006F
:10010A00166A176A186A196A1A6A956A936AFF0E52
:10011A00946EE5DF010E186E000E196E82B214D0CD
:10012A00020E0B6E040E0C6EBA0E0D6E0D2EFED75D
:10013A000C2EFCD70B2EFAD700001A6A166A176A19
:10014A00010E186E000E196E82B411D0020E0B6EDB
:10015A00040E0C6EBA0E0D6E0D2EFED70C2EFCD7A9
:10016A000B2EFAD70000010E186E000E196E82B619
:10017A000FD0020E0B6E040E0C6EBA0E0D6E0D2E03
:10018A00FED70C2EFCD70B2EFAD70000186A196A74
:10019A000A0E046E1AC000F053DF08C000F000C057
:1001AA001BF05DDF00C083FF200E816E1A0E0C6EFD
:1001BA00F80E0D6E0D2EFED70C2EFCD70000816AAC
:1001CA000A0E046E1AC000F03BDF00C01BF047DFC6
:1001DA0000C083FF100E816E1A0E0C6EF80E0D6EA3
:1001EA000D2EFED70C2EFCD70000816A0A0E046E73
:1001FA0016C000F025DF08C000F000C01BF02FDF9A
:10020A0000C083FF080E816E1A0E0C6EF80E0D6E7A
:10021A000D2EFED70C2EFCD70000816A0A0E046E42
:10022A0016C000F00DDF00C01BF019DF00C083FF0D
:10023A00040E816E1A0E0C6EF80E0D6E0D2EFED780
:10024A000C2EFCD70000816A0A0E046E17C000F05B
:10025A00F7DE08C000F000C01BF001DF00C083FF1A
:10026A00020E816E1A0E0C6EF80E0D6E0D2EFED752
:10027A000C2EFCD70000816A0A0E046E17C000F02B
:10028A00DFDE00C01BF0EBDE00C083FF010E816ED3
:10029A001A0E0C6EF80E0D6E0D2EFED70C2EFCD714
:0802AA000000816A3BD7FFD779
:020000040030CA
:0D000100021F1EFF8381FF0FC00FE00F40A4
:00000001FF
